{
  "address": "0x5FbDB2315678afecb367f032d93F642f64180aa3",
  "abi": [
    {
      "inputs": [],
      "stateMutability": "nonpayable",
      "type": "constructor"
    },
    {
      "stateMutability": "payable",
      "type": "fallback"
    },
    {
      "inputs": [
        {
          "internalType": "string",
          "name": "_postHash",
          "type": "string"
        }
      ],
      "name": "addPostHash",
      "outputs": [],
      "stateMutability": "nonpayable",
      "type": "function"
    },
    {
      "inputs": [
        {
          "internalType": "address",
          "name": "",
          "type": "address"
        }
      ],
      "name": "admins",
      "outputs": [
        {
          "internalType": "bool",
          "name": "",
          "type": "bool"
        }
      ],
      "stateMutability": "view",
      "type": "function"
    },
    {
      "inputs": [
        {
          "internalType": "string",
          "name": "_postHash",
          "type": "string"
        }
      ],
      "name": "deletePostHash",
      "outputs": [],
      "stateMutability": "nonpayable",
      "type": "function"
    },
    {
      "inputs": [],
      "name": "getAllPostsHashes",
      "outputs": [
        {
          "internalType": "string[]",
          "name": "",
          "type": "string[]"
        }
      ],
      "stateMutability": "view",
      "type": "function"
    },
    {
      "inputs": [],
      "name": "index",
      "outputs": [
        {
          "internalType": "uint256",
          "name": "",
          "type": "uint256"
        }
      ],
      "stateMutability": "view",
      "type": "function"
    },
    {
      "inputs": [
        {
          "internalType": "string",
          "name": "",
          "type": "string"
        }
      ],
      "name": "indexes",
      "outputs": [
        {
          "internalType": "uint256",
          "name": "",
          "type": "uint256"
        }
      ],
      "stateMutability": "view",
      "type": "function"
    },
    {
      "inputs": [
        {
          "internalType": "address",
          "name": "_toMakeAdmin",
          "type": "address"
        }
      ],
      "name": "makeAdmin",
      "outputs": [],
      "stateMutability": "nonpayable",
      "type": "function"
    },
    {
      "inputs": [],
      "name": "owner",
      "outputs": [
        {
          "internalType": "address",
          "name": "",
          "type": "address"
        }
      ],
      "stateMutability": "view",
      "type": "function"
    },
    {
      "inputs": [
        {
          "internalType": "uint256",
          "name": "",
          "type": "uint256"
        }
      ],
      "name": "postsHashes",
      "outputs": [
        {
          "internalType": "string",
          "name": "",
          "type": "string"
        }
      ],
      "stateMutability": "view",
      "type": "function"
    },
    {
      "inputs": [
        {
          "internalType": "address",
          "name": "_toRemoveAdmin",
          "type": "address"
        }
      ],
      "name": "removeAdmin",
      "outputs": [],
      "stateMutability": "nonpayable",
      "type": "function"
    },
    {
      "inputs": [
        {
          "internalType": "string",
          "name": "_newPostHash",
          "type": "string"
        },
        {
          "internalType": "string",
          "name": "_oldPostHash",
          "type": "string"
        }
      ],
      "name": "setNewPostHashAfterEdit",
      "outputs": [],
      "stateMutability": "nonpayable",
      "type": "function"
    },
    {
      "inputs": [
        {
          "internalType": "uint256",
          "name": "_amount",
          "type": "uint256"
        },
        {
          "internalType": "address",
          "name": "_to",
          "type": "address"
        }
      ],
      "name": "withDraw",
      "outputs": [],
      "stateMutability": "nonpayable",
      "type": "function"
    },
    {
      "stateMutability": "payable",
      "type": "receive"
    }
  ],
  "transactionHash": "0x8545d697678ecd5a34b35737de6100e47b0353ac3374b836552821e3ea1158e4",
  "args": [],
  "numDeployments": 1,
  "solcInputHash": "b5c917876dc3189bf64396a83ae99c96",
  "bytecode": "0x6080604052600160045534801561001557600080fd5b5033600360006101000a81548173ffffffffffffffffffffffffffffffffffffffff021916908373ffffffffffffffffffffffffffffffffffffffff1602179055506001600260003373ffffffffffffffffffffffffffffffffffffffff1673ffffffffffffffffffffffffffffffffffffffff16815260200190815260200160002060006101000a81548160ff02191690831515021790555061182e806100be6000396000f3fe6080604052600436106100ab5760003560e01c8063429b62e511610064578063429b62e5146101d6578063472905ca14610213578063845fb2111461023c5780638da5cb5b14610265578063b70a426c14610290578063db3bee1d146102b9576100b2565b80631785f53c146100b45780632427e59e146100dd5780632986c0e51461011a57806332ec8963146101455780633584596d1461016e5780633e03d22d146101ab576100b2565b366100b257005b005b3480156100c057600080fd5b506100db60048036038101906100d69190610dee565b6102e2565b005b3480156100e957600080fd5b5061010460048036038101906100ff9190610f61565b6103cd565b6040516101119190610fc3565b60405180910390f35b34801561012657600080fd5b5061012f6103fb565b60405161013c9190610fc3565b60405180910390f35b34801561015157600080fd5b5061016c6004803603810190610167919061103e565b610401565b005b34801561017a57600080fd5b50610195600480360381019061019091906110b7565b6105dc565b6040516101a2919061116c565b60405180910390f35b3480156101b757600080fd5b506101c0610688565b6040516101cd919061129a565b60405180910390f35b3480156101e257600080fd5b506101fd60048036038101906101f89190610dee565b610761565b60405161020a91906112d7565b60405180910390f35b34801561021f57600080fd5b5061023a60048036038101906102359190610dee565b610781565b005b34801561024857600080fd5b50610263600480360381019061025e91906112f2565b6108a0565b005b34801561027157600080fd5b5061027a61097b565b6040516102879190611341565b60405180910390f35b34801561029c57600080fd5b506102b760048036038101906102b2919061135c565b6109a1565b005b3480156102c557600080fd5b506102e060048036038101906102db919061103e565b610b34565b005b3373ffffffffffffffffffffffffffffffffffffffff16600360009054906101000a900473ffffffffffffffffffffffffffffffffffffffff1673ffffffffffffffffffffffffffffffffffffffff1614610372576040517f08c379a000000000000000000000000000000000000000000000000000000000815260040161036990611429565b60405180910390fd5b6000600260008373ffffffffffffffffffffffffffffffffffffffff1673ffffffffffffffffffffffffffffffffffffffff16815260200190815260200160002060006101000a81548160ff02191690831515021790555050565b6001818051602081018201805184825260208301602085012081835280955050505050506000915090505481565b60045481565b3373ffffffffffffffffffffffffffffffffffffffff16600360009054906101000a900473ffffffffffffffffffffffffffffffffffffffff1673ffffffffffffffffffffffffffffffffffffffff1614806104a65750600260003373ffffffffffffffffffffffffffffffffffffffff1673ffffffffffffffffffffffffffffffffffffffff16815260200190815260200160002060009054906101000a900460ff165b6104e5576040517f08c379a00000000000000000000000000000000000000000000000000000000081526004016104dc90611495565b60405180910390fd5b6000600183836040516104f99291906114e5565b90815260200160405180910390205490506000811161054d576040517f08c379a00000000000000000000000000000000000000000000000000000000081526004016105449061154a565b60405180910390fd5b600160008054905061055f9190611599565b8111156105a1576040517f08c379a000000000000000000000000000000000000000000000000000000000815260040161059890611661565b60405180910390fd5b60006001826105b09190611681565b815481106105c1576105c06116b5565b5b9060005260206000200160006105d79190610c99565b505050565b600081815481106105ec57600080fd5b90600052602060002001600091509050805461060790611713565b80601f016020809104026020016040519081016040528092919081815260200182805461063390611713565b80156106805780601f1061065557610100808354040283529160200191610680565b820191906000526020600020905b81548152906001019060200180831161066357829003601f168201915b505050505081565b60606000805480602002602001604051908101604052809291908181526020016000905b828210156107585783829060005260206000200180546106cb90611713565b80601f01602080910402602001604051908101604052809291908181526020018280546106f790611713565b80156107445780601f1061071957610100808354040283529160200191610744565b820191906000526020600020905b81548152906001019060200180831161072757829003601f168201915b5050505050815260200190600101906106ac565b50505050905090565b60026020528060005260406000206000915054906101000a900460ff1681565b600360009054906101000a900473ffffffffffffffffffffffffffffffffffffffff1673ffffffffffffffffffffffffffffffffffffffff163373ffffffffffffffffffffffffffffffffffffffff1614610845573373ffffffffffffffffffffffffffffffffffffffff168173ffffffffffffffffffffffffffffffffffffffff1614610844576040517f08c379a000000000000000000000000000000000000000000000000000000000815260040161083b90611790565b60405180910390fd5b5b6001600260008373ffffffffffffffffffffffffffffffffffffffff1673ffffffffffffffffffffffffffffffffffffffff16815260200190815260200160002060006101000a81548160ff02191690831515021790555050565b3373ffffffffffffffffffffffffffffffffffffffff16600360009054906101000a900473ffffffffffffffffffffffffffffffffffffffff1673ffffffffffffffffffffffffffffffffffffffff1614610930576040517f08c379a000000000000000000000000000000000000000000000000000000000815260040161092790611429565b60405180910390fd5b8073ffffffffffffffffffffffffffffffffffffffff166108fc839081150290604051600060405180830381858888f19350505050158015610976573d6000803e3d6000fd5b505050565b600360009054906101000a900473ffffffffffffffffffffffffffffffffffffffff1681565b3373ffffffffffffffffffffffffffffffffffffffff16600360009054906101000a900473ffffffffffffffffffffffffffffffffffffffff1673ffffffffffffffffffffffffffffffffffffffff161480610a465750600260003373ffffffffffffffffffffffffffffffffffffffff1673ffffffffffffffffffffffffffffffffffffffff16815260200190815260200160002060009054906101000a900460ff165b610a85576040517f08c379a0000000000000000000000000000000000000000000000000000000008152600401610a7c90611495565b60405180910390fd5b600060018383604051610a999291906114e5565b908152602001604051809103902054905084846000600184610abb9190611681565b81548110610acc57610acb6116b5565b5b906000526020600020019190610ae3929190610cd9565b508060018686604051610af79291906114e5565b90815260200160405180910390208190555060018383604051610b1b9291906114e5565b9081526020016040518091039020600090555050505050565b3373ffffffffffffffffffffffffffffffffffffffff16600360009054906101000a900473ffffffffffffffffffffffffffffffffffffffff1673ffffffffffffffffffffffffffffffffffffffff161480610bd95750600260003373ffffffffffffffffffffffffffffffffffffffff1673ffffffffffffffffffffffffffffffffffffffff16815260200190815260200160002060009054906101000a900460ff165b610c18576040517f08c379a0000000000000000000000000000000000000000000000000000000008152600401610c0f90611495565b60405180910390fd5b6000828290918060018154018082558091505060019003906000526020600020016000909192909192909192909192509190610c55929190610cd9565b5060045460018383604051610c6b9291906114e5565b90815260200160405180910390208190555060046000815480929190610c90906117b0565b91905055505050565b508054610ca590611713565b6000825580601f10610cb75750610cd6565b601f016020900490600052602060002090810190610cd59190610d5f565b5b50565b828054610ce590611713565b90600052602060002090601f016020900481019282610d075760008555610d4e565b82601f10610d2057803560ff1916838001178555610d4e565b82800160010185558215610d4e579182015b82811115610d4d578235825591602001919060010190610d32565b5b509050610d5b9190610d5f565b5090565b5b80821115610d78576000816000905550600101610d60565b5090565b6000604051905090565b600080fd5b600080fd5b600073ffffffffffffffffffffffffffffffffffffffff82169050919050565b6000610dbb82610d90565b9050919050565b610dcb81610db0565b8114610dd657600080fd5b50565b600081359050610de881610dc2565b92915050565b600060208284031215610e0457610e03610d86565b5b6000610e1284828501610dd9565b91505092915050565b600080fd5b600080fd5b6000601f19601f8301169050919050565b7f4e487b7100000000000000000000000000000000000000000000000000000000600052604160045260246000fd5b610e6e82610e25565b810181811067ffffffffffffffff82111715610e8d57610e8c610e36565b5b80604052505050565b6000610ea0610d7c565b9050610eac8282610e65565b919050565b600067ffffffffffffffff821115610ecc57610ecb610e36565b5b610ed582610e25565b9050602081019050919050565b82818337600083830152505050565b6000610f04610eff84610eb1565b610e96565b905082815260208101848484011115610f2057610f1f610e20565b5b610f2b848285610ee2565b509392505050565b600082601f830112610f4857610f47610e1b565b5b8135610f58848260208601610ef1565b91505092915050565b600060208284031215610f7757610f76610d86565b5b600082013567ffffffffffffffff811115610f9557610f94610d8b565b5b610fa184828501610f33565b91505092915050565b6000819050919050565b610fbd81610faa565b82525050565b6000602082019050610fd86000830184610fb4565b92915050565b600080fd5b600080fd5b60008083601f840112610ffe57610ffd610e1b565b5b8235905067ffffffffffffffff81111561101b5761101a610fde565b5b60208301915083600182028301111561103757611036610fe3565b5b9250929050565b6000806020838503121561105557611054610d86565b5b600083013567ffffffffffffffff81111561107357611072610d8b565b5b61107f85828601610fe8565b92509250509250929050565b61109481610faa565b811461109f57600080fd5b50565b6000813590506110b18161108b565b92915050565b6000602082840312156110cd576110cc610d86565b5b60006110db848285016110a2565b91505092915050565b600081519050919050565b600082825260208201905092915050565b60005b8381101561111e578082015181840152602081019050611103565b8381111561112d576000848401525b50505050565b600061113e826110e4565b61114881856110ef565b9350611158818560208601611100565b61116181610e25565b840191505092915050565b600060208201905081810360008301526111868184611133565b905092915050565b600081519050919050565b600082825260208201905092915050565b6000819050602082019050919050565b600082825260208201905092915050565b60006111d6826110e4565b6111e081856111ba565b93506111f0818560208601611100565b6111f981610e25565b840191505092915050565b600061121083836111cb565b905092915050565b6000602082019050919050565b60006112308261118e565b61123a8185611199565b93508360208202850161124c856111aa565b8060005b8581101561128857848403895281516112698582611204565b945061127483611218565b925060208a01995050600181019050611250565b50829750879550505050505092915050565b600060208201905081810360008301526112b48184611225565b905092915050565b60008115159050919050565b6112d1816112bc565b82525050565b60006020820190506112ec60008301846112c8565b92915050565b6000806040838503121561130957611308610d86565b5b6000611317858286016110a2565b925050602061132885828601610dd9565b9150509250929050565b61133b81610db0565b82525050565b60006020820190506113566000830184611332565b92915050565b6000806000806040858703121561137657611375610d86565b5b600085013567ffffffffffffffff81111561139457611393610d8b565b5b6113a087828801610fe8565b9450945050602085013567ffffffffffffffff8111156113c3576113c2610d8b565b5b6113cf87828801610fe8565b925092505092959194509250565b7f4f6e6c79206f776e657221000000000000000000000000000000000000000000600082015250565b6000611413600b836110ef565b915061141e826113dd565b602082019050919050565b6000602082019050818103600083015261144281611406565b9050919050565b7f4f6e6c79206f776e6572206f722061646d696e21000000000000000000000000600082015250565b600061147f6014836110ef565b915061148a82611449565b602082019050919050565b600060208201905081810360008301526114ae81611472565b9050919050565b600081905092915050565b60006114cc83856114b5565b93506114d9838584610ee2565b82840190509392505050565b60006114f28284866114c0565b91508190509392505050565b7f556e646566696e656420696e6465782100000000000000000000000000000000600082015250565b60006115346010836110ef565b915061153f826114fe565b602082019050919050565b6000602082019050818103600083015261156381611527565b9050919050565b7f4e487b7100000000000000000000000000000000000000000000000000000000600052601160045260246000fd5b60006115a482610faa565b91506115af83610faa565b9250827fffffffffffffffffffffffffffffffffffffffffffffffffffffffffffffffff038211156115e4576115e361156a565b5b828201905092915050565b7f496e646578206f662066696e64656420706f7374206d6f7265207468616e206160008201527f6c6c20617272206c656e67746800000000000000000000000000000000000000602082015250565b600061164b602d836110ef565b9150611656826115ef565b604082019050919050565b6000602082019050818103600083015261167a8161163e565b9050919050565b600061168c82610faa565b915061169783610faa565b9250828210156116aa576116a961156a565b5b828203905092915050565b7f4e487b7100000000000000000000000000000000000000000000000000000000600052603260045260246000fd5b7f4e487b7100000000000000000000000000000000000000000000000000000000600052602260045260246000fd5b6000600282049050600182168061172b57607f821691505b60208210810361173e5761173d6116e4565b5b50919050565b7f57687920796f7520696e64696361746520616e6f746865722061646472657373600082015250565b600061177a6020836110ef565b915061178582611744565b602082019050919050565b600060208201905081810360008301526117a98161176d565b9050919050565b60006117bb82610faa565b91507fffffffffffffffffffffffffffffffffffffffffffffffffffffffffffffffff82036117ed576117ec61156a565b5b60018201905091905056fea2646970667358221220f82277cb671fcbbfb487a063f865f08c94f3393e6c02d68fa7e657ebfef4188164736f6c634300080d0033",
  "devdoc": {
    "kind": "dev",
    "methods": {},
    "version": 1
  },
  "userdoc": {
    "kind": "user",
    "methods": {},
    "version": 1
  },
  "storageLayout": {
    "storage": [
      {
        "astId": 4,
        "contract": "contracts/HashesStorage.sol:HashesStorage",
        "label": "postsHashes",
        "offset": 0,
        "slot": "0",
        "type": "t_array(t_string_storage)dyn_storage"
      },
      {
        "astId": 8,
        "contract": "contracts/HashesStorage.sol:HashesStorage",
        "label": "indexes",
        "offset": 0,
        "slot": "1",
        "type": "t_mapping(t_string_memory_ptr,t_uint256)"
      },
      {
        "astId": 12,
        "contract": "contracts/HashesStorage.sol:HashesStorage",
        "label": "admins",
        "offset": 0,
        "slot": "2",
        "type": "t_mapping(t_address,t_bool)"
      },
      {
        "astId": 14,
        "contract": "contracts/HashesStorage.sol:HashesStorage",
        "label": "owner",
        "offset": 0,
        "slot": "3",
        "type": "t_address"
      },
      {
        "astId": 17,
        "contract": "contracts/HashesStorage.sol:HashesStorage",
        "label": "index",
        "offset": 0,
        "slot": "4",
        "type": "t_uint256"
      }
    ],
    "types": {
      "t_address": {
        "encoding": "inplace",
        "label": "address",
        "numberOfBytes": "20"
      },
      "t_array(t_string_storage)dyn_storage": {
        "base": "t_string_storage",
        "encoding": "dynamic_array",
        "label": "string[]",
        "numberOfBytes": "32"
      },
      "t_bool": {
        "encoding": "inplace",
        "label": "bool",
        "numberOfBytes": "1"
      },
      "t_mapping(t_address,t_bool)": {
        "encoding": "mapping",
        "key": "t_address",
        "label": "mapping(address => bool)",
        "numberOfBytes": "32",
        "value": "t_bool"
      },
      "t_mapping(t_string_memory_ptr,t_uint256)": {
        "encoding": "mapping",
        "key": "t_string_memory_ptr",
        "label": "mapping(string => uint256)",
        "numberOfBytes": "32",
        "value": "t_uint256"
      },
      "t_string_memory_ptr": {
        "encoding": "bytes",
        "label": "string",
        "numberOfBytes": "32"
      },
      "t_string_storage": {
        "encoding": "bytes",
        "label": "string",
        "numberOfBytes": "32"
      },
      "t_uint256": {
        "encoding": "inplace",
        "label": "uint256",
        "numberOfBytes": "32"
      }
    }
  }
}