{
  "address": "0x5FbDB2315678afecb367f032d93F642f64180aa3",
  "abi": [
    {
      "inputs": [],
      "stateMutability": "nonpayable",
      "type": "constructor"
    },
    {
      "stateMutability": "payable",
      "type": "fallback"
    },
    {
      "inputs": [
        {
          "internalType": "string",
          "name": "_postHash",
          "type": "string"
        }
      ],
      "name": "addPostHash",
      "outputs": [],
      "stateMutability": "nonpayable",
      "type": "function"
    },
    {
      "inputs": [
        {
          "internalType": "address",
          "name": "",
          "type": "address"
        }
      ],
      "name": "admins",
      "outputs": [
        {
          "internalType": "bool",
          "name": "",
          "type": "bool"
        }
      ],
      "stateMutability": "view",
      "type": "function"
    },
    {
      "inputs": [
        {
          "internalType": "string",
          "name": "_postHash",
          "type": "string"
        }
      ],
      "name": "deletePostHash",
      "outputs": [],
      "stateMutability": "nonpayable",
      "type": "function"
    },
    {
      "inputs": [],
      "name": "getAllPostsHashes",
      "outputs": [
        {
          "internalType": "string[]",
          "name": "",
          "type": "string[]"
        }
      ],
      "stateMutability": "view",
      "type": "function"
    },
    {
      "inputs": [
        {
          "internalType": "string",
          "name": "",
          "type": "string"
        }
      ],
      "name": "indexes",
      "outputs": [
        {
          "internalType": "uint256",
          "name": "",
          "type": "uint256"
        }
      ],
      "stateMutability": "view",
      "type": "function"
    },
    {
      "inputs": [
        {
          "internalType": "address",
          "name": "_toMakeAdmin",
          "type": "address"
        }
      ],
      "name": "makeAdmin",
      "outputs": [],
      "stateMutability": "nonpayable",
      "type": "function"
    },
    {
      "inputs": [],
      "name": "owner",
      "outputs": [
        {
          "internalType": "address",
          "name": "",
          "type": "address"
        }
      ],
      "stateMutability": "view",
      "type": "function"
    },
    {
      "inputs": [
        {
          "internalType": "uint256",
          "name": "",
          "type": "uint256"
        }
      ],
      "name": "postsHashes",
      "outputs": [
        {
          "internalType": "string",
          "name": "",
          "type": "string"
        }
      ],
      "stateMutability": "view",
      "type": "function"
    },
    {
      "inputs": [
        {
          "internalType": "address",
          "name": "_toRemoveAdmin",
          "type": "address"
        }
      ],
      "name": "removeAdmin",
      "outputs": [],
      "stateMutability": "nonpayable",
      "type": "function"
    },
    {
      "inputs": [
        {
          "internalType": "string",
          "name": "_newPostHash",
          "type": "string"
        },
        {
          "internalType": "string",
          "name": "_oldPostHash",
          "type": "string"
        }
      ],
      "name": "setNewPostHashAfterEdit",
      "outputs": [],
      "stateMutability": "nonpayable",
      "type": "function"
    },
    {
      "inputs": [
        {
          "internalType": "uint256",
          "name": "_amount",
          "type": "uint256"
        },
        {
          "internalType": "address",
          "name": "_to",
          "type": "address"
        }
      ],
      "name": "withDraw",
      "outputs": [],
      "stateMutability": "nonpayable",
      "type": "function"
    },
    {
      "stateMutability": "payable",
      "type": "receive"
    }
  ],
  "transactionHash": "0x91347f4250e5aee93d8fe884e72a320909efff3e379196466fc7a27adba2d1f5",
  "args": [],
  "numDeployments": 1,
  "solcInputHash": "04451f4d94c39b29df9776bc51c35136",
  "bytecode": "0x608060405234801561001057600080fd5b5033600360006101000a81548173ffffffffffffffffffffffffffffffffffffffff021916908373ffffffffffffffffffffffffffffffffffffffff1602179055506001600260003373ffffffffffffffffffffffffffffffffffffffff1673ffffffffffffffffffffffffffffffffffffffff16815260200190815260200160002060006101000a81548160ff021916908315150217905550611570806100b96000396000f3fe6080604052600436106100a05760003560e01c8063429b62e511610064578063429b62e5146101a0578063472905ca146101dd578063845fb211146102065780638da5cb5b1461022f578063b70a426c1461025a578063db3bee1d14610283576100a7565b80631785f53c146100a95780632427e59e146100d257806332ec89631461010f5780633584596d146101385780633e03d22d14610175576100a7565b366100a757005b005b3480156100b557600080fd5b506100d060048036038101906100cb9190610cb8565b6102ac565b005b3480156100de57600080fd5b506100f960048036038101906100f49190610e2b565b610397565b6040516101069190610e8d565b60405180910390f35b34801561011b57600080fd5b5061013660048036038101906101319190610f08565b6103c5565b005b34801561014457600080fd5b5061015f600480360381019061015a9190610f81565b6104fd565b60405161016c9190611036565b60405180910390f35b34801561018157600080fd5b5061018a6105a9565b6040516101979190611164565b60405180910390f35b3480156101ac57600080fd5b506101c760048036038101906101c29190610cb8565b610682565b6040516101d491906111a1565b60405180910390f35b3480156101e957600080fd5b5061020460048036038101906101ff9190610cb8565b6106a2565b005b34801561021257600080fd5b5061022d600480360381019061022891906111bc565b61076b565b005b34801561023b57600080fd5b5061024461089a565b604051610251919061120b565b60405180910390f35b34801561026657600080fd5b50610281600480360381019061027c9190611226565b6108c0565b005b34801561028f57600080fd5b506102aa60048036038101906102a59190610f08565b6109fe565b005b3373ffffffffffffffffffffffffffffffffffffffff16600360009054906101000a900473ffffffffffffffffffffffffffffffffffffffff1673ffffffffffffffffffffffffffffffffffffffff161461033c576040517f08c379a0000000000000000000000000000000000000000000000000000000008152600401610333906112f3565b60405180910390fd5b6000600260008373ffffffffffffffffffffffffffffffffffffffff1673ffffffffffffffffffffffffffffffffffffffff16815260200190815260200160002060006101000a81548160ff02191690831515021790555050565b6001818051602081018201805184825260208301602085012081835280955050505050506000915090505481565b3373ffffffffffffffffffffffffffffffffffffffff16600360009054906101000a900473ffffffffffffffffffffffffffffffffffffffff1673ffffffffffffffffffffffffffffffffffffffff16148061046a5750600260003373ffffffffffffffffffffffffffffffffffffffff1673ffffffffffffffffffffffffffffffffffffffff16815260200190815260200160002060009054906101000a900460ff165b6104a9576040517f08c379a00000000000000000000000000000000000000000000000000000000081526004016104a09061135f565b60405180910390fd5b6000600183836040516104bd9291906113af565b9081526020016040518091039020549050600081815481106104e2576104e16113c8565b5b9060005260206000200160006104f89190610b63565b505050565b6000818154811061050d57600080fd5b90600052602060002001600091509050805461052890611426565b80601f016020809104026020016040519081016040528092919081815260200182805461055490611426565b80156105a15780601f10610576576101008083540402835291602001916105a1565b820191906000526020600020905b81548152906001019060200180831161058457829003601f168201915b505050505081565b60606000805480602002602001604051908101604052809291908181526020016000905b828210156106795783829060005260206000200180546105ec90611426565b80601f016020809104026020016040519081016040528092919081815260200182805461061890611426565b80156106655780601f1061063a57610100808354040283529160200191610665565b820191906000526020600020905b81548152906001019060200180831161064857829003601f168201915b5050505050815260200190600101906105cd565b50505050905090565b60026020528060005260406000206000915054906101000a900460ff1681565b3373ffffffffffffffffffffffffffffffffffffffff168173ffffffffffffffffffffffffffffffffffffffff1614610710576040517f08c379a0000000000000000000000000000000000000000000000000000000008152600401610707906114a3565b60405180910390fd5b6001600260008373ffffffffffffffffffffffffffffffffffffffff1673ffffffffffffffffffffffffffffffffffffffff16815260200190815260200160002060006101000a81548160ff02191690831515021790555050565b3373ffffffffffffffffffffffffffffffffffffffff16600360009054906101000a900473ffffffffffffffffffffffffffffffffffffffff1673ffffffffffffffffffffffffffffffffffffffff1614806108105750600260003373ffffffffffffffffffffffffffffffffffffffff1673ffffffffffffffffffffffffffffffffffffffff16815260200190815260200160002060009054906101000a900460ff165b61084f576040517f08c379a00000000000000000000000000000000000000000000000000000000081526004016108469061135f565b60405180910390fd5b8073ffffffffffffffffffffffffffffffffffffffff166108fc839081150290604051600060405180830381858888f19350505050158015610895573d6000803e3d6000fd5b505050565b600360009054906101000a900473ffffffffffffffffffffffffffffffffffffffff1681565b3373ffffffffffffffffffffffffffffffffffffffff16600360009054906101000a900473ffffffffffffffffffffffffffffffffffffffff1673ffffffffffffffffffffffffffffffffffffffff1614806109655750600260003373ffffffffffffffffffffffffffffffffffffffff1673ffffffffffffffffffffffffffffffffffffffff16815260200190815260200160002060009054906101000a900460ff165b6109a4576040517f08c379a000000000000000000000000000000000000000000000000000000000815260040161099b9061135f565b60405180910390fd5b6000600183836040516109b89291906113af565b90815260200160405180910390205490508484600083815481106109df576109de6113c8565b5b9060005260206000200191906109f6929190610ba3565b505050505050565b3373ffffffffffffffffffffffffffffffffffffffff16600360009054906101000a900473ffffffffffffffffffffffffffffffffffffffff1673ffffffffffffffffffffffffffffffffffffffff161480610aa35750600260003373ffffffffffffffffffffffffffffffffffffffff1673ffffffffffffffffffffffffffffffffffffffff16815260200190815260200160002060009054906101000a900460ff165b610ae2576040517f08c379a0000000000000000000000000000000000000000000000000000000008152600401610ad99061135f565b60405180910390fd5b6000828290918060018154018082558091505060019003906000526020600020016000909192909192909192909192509190610b1f929190610ba3565b5060045460018383604051610b359291906113af565b90815260200160405180910390208190555060046000815480929190610b5a906114f2565b91905055505050565b508054610b6f90611426565b6000825580601f10610b815750610ba0565b601f016020900490600052602060002090810190610b9f9190610c29565b5b50565b828054610baf90611426565b90600052602060002090601f016020900481019282610bd15760008555610c18565b82601f10610bea57803560ff1916838001178555610c18565b82800160010185558215610c18579182015b82811115610c17578235825591602001919060010190610bfc565b5b509050610c259190610c29565b5090565b5b80821115610c42576000816000905550600101610c2a565b5090565b6000604051905090565b600080fd5b600080fd5b600073ffffffffffffffffffffffffffffffffffffffff82169050919050565b6000610c8582610c5a565b9050919050565b610c9581610c7a565b8114610ca057600080fd5b50565b600081359050610cb281610c8c565b92915050565b600060208284031215610cce57610ccd610c50565b5b6000610cdc84828501610ca3565b91505092915050565b600080fd5b600080fd5b6000601f19601f8301169050919050565b7f4e487b7100000000000000000000000000000000000000000000000000000000600052604160045260246000fd5b610d3882610cef565b810181811067ffffffffffffffff82111715610d5757610d56610d00565b5b80604052505050565b6000610d6a610c46565b9050610d768282610d2f565b919050565b600067ffffffffffffffff821115610d9657610d95610d00565b5b610d9f82610cef565b9050602081019050919050565b82818337600083830152505050565b6000610dce610dc984610d7b565b610d60565b905082815260208101848484011115610dea57610de9610cea565b5b610df5848285610dac565b509392505050565b600082601f830112610e1257610e11610ce5565b5b8135610e22848260208601610dbb565b91505092915050565b600060208284031215610e4157610e40610c50565b5b600082013567ffffffffffffffff811115610e5f57610e5e610c55565b5b610e6b84828501610dfd565b91505092915050565b6000819050919050565b610e8781610e74565b82525050565b6000602082019050610ea26000830184610e7e565b92915050565b600080fd5b600080fd5b60008083601f840112610ec857610ec7610ce5565b5b8235905067ffffffffffffffff811115610ee557610ee4610ea8565b5b602083019150836001820283011115610f0157610f00610ead565b5b9250929050565b60008060208385031215610f1f57610f1e610c50565b5b600083013567ffffffffffffffff811115610f3d57610f3c610c55565b5b610f4985828601610eb2565b92509250509250929050565b610f5e81610e74565b8114610f6957600080fd5b50565b600081359050610f7b81610f55565b92915050565b600060208284031215610f9757610f96610c50565b5b6000610fa584828501610f6c565b91505092915050565b600081519050919050565b600082825260208201905092915050565b60005b83811015610fe8578082015181840152602081019050610fcd565b83811115610ff7576000848401525b50505050565b600061100882610fae565b6110128185610fb9565b9350611022818560208601610fca565b61102b81610cef565b840191505092915050565b600060208201905081810360008301526110508184610ffd565b905092915050565b600081519050919050565b600082825260208201905092915050565b6000819050602082019050919050565b600082825260208201905092915050565b60006110a082610fae565b6110aa8185611084565b93506110ba818560208601610fca565b6110c381610cef565b840191505092915050565b60006110da8383611095565b905092915050565b6000602082019050919050565b60006110fa82611058565b6111048185611063565b93508360208202850161111685611074565b8060005b85811015611152578484038952815161113385826110ce565b945061113e836110e2565b925060208a0199505060018101905061111a565b50829750879550505050505092915050565b6000602082019050818103600083015261117e81846110ef565b905092915050565b60008115159050919050565b61119b81611186565b82525050565b60006020820190506111b66000830184611192565b92915050565b600080604083850312156111d3576111d2610c50565b5b60006111e185828601610f6c565b92505060206111f285828601610ca3565b9150509250929050565b61120581610c7a565b82525050565b600060208201905061122060008301846111fc565b92915050565b600080600080604085870312156112405761123f610c50565b5b600085013567ffffffffffffffff81111561125e5761125d610c55565b5b61126a87828801610eb2565b9450945050602085013567ffffffffffffffff81111561128d5761128c610c55565b5b61129987828801610eb2565b925092505092959194509250565b7f4f6e6c79206f776e657221000000000000000000000000000000000000000000600082015250565b60006112dd600b83610fb9565b91506112e8826112a7565b602082019050919050565b6000602082019050818103600083015261130c816112d0565b9050919050565b7f4f6e6c79206f776e6572206f722061646d696e21000000000000000000000000600082015250565b6000611349601483610fb9565b915061135482611313565b602082019050919050565b600060208201905081810360008301526113788161133c565b9050919050565b600081905092915050565b6000611396838561137f565b93506113a3838584610dac565b82840190509392505050565b60006113bc82848661138a565b91508190509392505050565b7f4e487b7100000000000000000000000000000000000000000000000000000000600052603260045260246000fd5b7f4e487b7100000000000000000000000000000000000000000000000000000000600052602260045260246000fd5b6000600282049050600182168061143e57607f821691505b602082108103611451576114506113f7565b5b50919050565b7f57687920796f7520696e64696361746520616e6f746865722061646472657373600082015250565b600061148d602083610fb9565b915061149882611457565b602082019050919050565b600060208201905081810360008301526114bc81611480565b9050919050565b7f4e487b7100000000000000000000000000000000000000000000000000000000600052601160045260246000fd5b60006114fd82610e74565b91507fffffffffffffffffffffffffffffffffffffffffffffffffffffffffffffffff820361152f5761152e6114c3565b5b60018201905091905056fea26469706673582212203ecb300947e08e617b2bc1c730899ffa7991c19f0548565fa046e5ea40be896964736f6c634300080d0033",
  "devdoc": {
    "kind": "dev",
    "methods": {},
    "version": 1
  },
  "userdoc": {
    "kind": "user",
    "methods": {},
    "version": 1
  },
  "storageLayout": {
    "storage": [
      {
        "astId": 4,
        "contract": "contracts/Storage.sol:Storage",
        "label": "postsHashes",
        "offset": 0,
        "slot": "0",
        "type": "t_array(t_string_storage)dyn_storage"
      },
      {
        "astId": 8,
        "contract": "contracts/Storage.sol:Storage",
        "label": "indexes",
        "offset": 0,
        "slot": "1",
        "type": "t_mapping(t_string_memory_ptr,t_uint256)"
      },
      {
        "astId": 12,
        "contract": "contracts/Storage.sol:Storage",
        "label": "admins",
        "offset": 0,
        "slot": "2",
        "type": "t_mapping(t_address,t_bool)"
      },
      {
        "astId": 14,
        "contract": "contracts/Storage.sol:Storage",
        "label": "owner",
        "offset": 0,
        "slot": "3",
        "type": "t_address"
      },
      {
        "astId": 16,
        "contract": "contracts/Storage.sol:Storage",
        "label": "index",
        "offset": 0,
        "slot": "4",
        "type": "t_uint256"
      }
    ],
    "types": {
      "t_address": {
        "encoding": "inplace",
        "label": "address",
        "numberOfBytes": "20"
      },
      "t_array(t_string_storage)dyn_storage": {
        "base": "t_string_storage",
        "encoding": "dynamic_array",
        "label": "string[]",
        "numberOfBytes": "32"
      },
      "t_bool": {
        "encoding": "inplace",
        "label": "bool",
        "numberOfBytes": "1"
      },
      "t_mapping(t_address,t_bool)": {
        "encoding": "mapping",
        "key": "t_address",
        "label": "mapping(address => bool)",
        "numberOfBytes": "32",
        "value": "t_bool"
      },
      "t_mapping(t_string_memory_ptr,t_uint256)": {
        "encoding": "mapping",
        "key": "t_string_memory_ptr",
        "label": "mapping(string => uint256)",
        "numberOfBytes": "32",
        "value": "t_uint256"
      },
      "t_string_memory_ptr": {
        "encoding": "bytes",
        "label": "string",
        "numberOfBytes": "32"
      },
      "t_string_storage": {
        "encoding": "bytes",
        "label": "string",
        "numberOfBytes": "32"
      },
      "t_uint256": {
        "encoding": "inplace",
        "label": "uint256",
        "numberOfBytes": "32"
      }
    }
  }
}