{
  "address": "0x5FbDB2315678afecb367f032d93F642f64180aa3",
  "abi": [
    {
      "inputs": [],
      "stateMutability": "nonpayable",
      "type": "constructor"
    },
    {
      "stateMutability": "payable",
      "type": "fallback"
    },
    {
      "inputs": [
        {
          "internalType": "string",
          "name": "_postHash",
          "type": "string"
        }
      ],
      "name": "addPostHash",
      "outputs": [],
      "stateMutability": "nonpayable",
      "type": "function"
    },
    {
      "inputs": [
        {
          "internalType": "string",
          "name": "_postHash",
          "type": "string"
        }
      ],
      "name": "deletePostHash",
      "outputs": [],
      "stateMutability": "nonpayable",
      "type": "function"
    },
    {
      "inputs": [],
      "name": "getAllPostsHashes",
      "outputs": [
        {
          "internalType": "string[]",
          "name": "",
          "type": "string[]"
        }
      ],
      "stateMutability": "view",
      "type": "function"
    },
    {
      "inputs": [
        {
          "internalType": "address",
          "name": "_toMakeAdmin",
          "type": "address"
        }
      ],
      "name": "makeAdmin",
      "outputs": [],
      "stateMutability": "nonpayable",
      "type": "function"
    },
    {
      "inputs": [],
      "name": "owner",
      "outputs": [
        {
          "internalType": "address",
          "name": "",
          "type": "address"
        }
      ],
      "stateMutability": "view",
      "type": "function"
    },
    {
      "inputs": [
        {
          "internalType": "address",
          "name": "_toRemoveAdmin",
          "type": "address"
        }
      ],
      "name": "removeAdmin",
      "outputs": [],
      "stateMutability": "nonpayable",
      "type": "function"
    },
    {
      "inputs": [
        {
          "internalType": "string",
          "name": "_newPostHash",
          "type": "string"
        },
        {
          "internalType": "string",
          "name": "_oldPostHash",
          "type": "string"
        }
      ],
      "name": "setNewPostHashAfterEdit",
      "outputs": [],
      "stateMutability": "nonpayable",
      "type": "function"
    },
    {
      "inputs": [
        {
          "internalType": "uint256",
          "name": "_amount",
          "type": "uint256"
        },
        {
          "internalType": "address",
          "name": "_to",
          "type": "address"
        }
      ],
      "name": "withDraw",
      "outputs": [],
      "stateMutability": "nonpayable",
      "type": "function"
    },
    {
      "stateMutability": "payable",
      "type": "receive"
    }
  ],
  "transactionHash": "0x0b460909fd246f7f74320e70cd34c912caafe0e09b2f6532fdb4e37e009f7fef",
  "args": [],
  "numDeployments": 1,
  "solcInputHash": "cefda07f6c1bc6666c08b77bd6de397b",
  "bytecode": "0x608060405234801561001057600080fd5b5033600360006101000a81548173ffffffffffffffffffffffffffffffffffffffff021916908373ffffffffffffffffffffffffffffffffffffffff160217905550610f6c806100616000396000f3fe60806040526004361061007f5760003560e01c8063845fb2111161004e578063845fb2111461012e5780638da5cb5b14610157578063b70a426c14610182578063db3bee1d146101ab57610086565b80631785f53c1461008857806332ec8963146100b15780633e03d22d146100da578063472905ca1461010557610086565b3661008657005b005b34801561009457600080fd5b506100af60048036038101906100aa91906109de565b6101d4565b005b3480156100bd57600080fd5b506100d860048036038101906100d39190610a70565b61022f565b005b3480156100e657600080fd5b506100ef610367565b6040516100fc9190610c18565b60405180910390f35b34801561011157600080fd5b5061012c600480360381019061012791906109de565b610440565b005b34801561013a57600080fd5b5061015560048036038101906101509190610c70565b61049b565b005b34801561016357600080fd5b5061016c6105ca565b6040516101799190610cbf565b60405180910390f35b34801561018e57600080fd5b506101a960048036038101906101a49190610cda565b6105f0565b005b3480156101b757600080fd5b506101d260048036038101906101cd9190610a70565b61072e565b005b6000600260008373ffffffffffffffffffffffffffffffffffffffff1673ffffffffffffffffffffffffffffffffffffffff16815260200190815260200160002060006101000a81548160ff02191690831515021790555050565b3373ffffffffffffffffffffffffffffffffffffffff16600360009054906101000a900473ffffffffffffffffffffffffffffffffffffffff1673ffffffffffffffffffffffffffffffffffffffff1614806102d45750600260003373ffffffffffffffffffffffffffffffffffffffff1673ffffffffffffffffffffffffffffffffffffffff16815260200190815260200160002060009054906101000a900460ff165b610313576040517f08c379a000000000000000000000000000000000000000000000000000000000815260040161030a90610db8565b60405180910390fd5b600060018383604051610327929190610e17565b90815260200160405180910390205490506000818154811061034c5761034b610e30565b5b9060005260206000200160006103629190610893565b505050565b60606000805480602002602001604051908101604052809291908181526020016000905b828210156104375783829060005260206000200180546103aa90610e8e565b80601f01602080910402602001604051908101604052809291908181526020018280546103d690610e8e565b80156104235780601f106103f857610100808354040283529160200191610423565b820191906000526020600020905b81548152906001019060200180831161040657829003601f168201915b50505050508152602001906001019061038b565b50505050905090565b6001600260008373ffffffffffffffffffffffffffffffffffffffff1673ffffffffffffffffffffffffffffffffffffffff16815260200190815260200160002060006101000a81548160ff02191690831515021790555050565b3373ffffffffffffffffffffffffffffffffffffffff16600360009054906101000a900473ffffffffffffffffffffffffffffffffffffffff1673ffffffffffffffffffffffffffffffffffffffff1614806105405750600260003373ffffffffffffffffffffffffffffffffffffffff1673ffffffffffffffffffffffffffffffffffffffff16815260200190815260200160002060009054906101000a900460ff165b61057f576040517f08c379a000000000000000000000000000000000000000000000000000000000815260040161057690610db8565b60405180910390fd5b8073ffffffffffffffffffffffffffffffffffffffff166108fc839081150290604051600060405180830381858888f193505050501580156105c5573d6000803e3d6000fd5b505050565b600360009054906101000a900473ffffffffffffffffffffffffffffffffffffffff1681565b3373ffffffffffffffffffffffffffffffffffffffff16600360009054906101000a900473ffffffffffffffffffffffffffffffffffffffff1673ffffffffffffffffffffffffffffffffffffffff1614806106955750600260003373ffffffffffffffffffffffffffffffffffffffff1673ffffffffffffffffffffffffffffffffffffffff16815260200190815260200160002060009054906101000a900460ff165b6106d4576040517f08c379a00000000000000000000000000000000000000000000000000000000081526004016106cb90610db8565b60405180910390fd5b6000600183836040516106e8929190610e17565b908152602001604051809103902054905084846000838154811061070f5761070e610e30565b5b9060005260206000200191906107269291906108d3565b505050505050565b3373ffffffffffffffffffffffffffffffffffffffff16600360009054906101000a900473ffffffffffffffffffffffffffffffffffffffff1673ffffffffffffffffffffffffffffffffffffffff1614806107d35750600260003373ffffffffffffffffffffffffffffffffffffffff1673ffffffffffffffffffffffffffffffffffffffff16815260200190815260200160002060009054906101000a900460ff165b610812576040517f08c379a000000000000000000000000000000000000000000000000000000000815260040161080990610db8565b60405180910390fd5b600082829091806001815401808255809150506001900390600052602060002001600090919290919290919290919250919061084f9291906108d3565b5060045460018383604051610865929190610e17565b9081526020016040518091039020819055506004600081548092919061088a90610eee565b91905055505050565b50805461089f90610e8e565b6000825580601f106108b157506108d0565b601f0160209004906000526020600020908101906108cf9190610959565b5b50565b8280546108df90610e8e565b90600052602060002090601f0160209004810192826109015760008555610948565b82601f1061091a57803560ff1916838001178555610948565b82800160010185558215610948579182015b8281111561094757823582559160200191906001019061092c565b5b5090506109559190610959565b5090565b5b8082111561097257600081600090555060010161095a565b5090565b600080fd5b600080fd5b600073ffffffffffffffffffffffffffffffffffffffff82169050919050565b60006109ab82610980565b9050919050565b6109bb816109a0565b81146109c657600080fd5b50565b6000813590506109d8816109b2565b92915050565b6000602082840312156109f4576109f3610976565b5b6000610a02848285016109c9565b91505092915050565b600080fd5b600080fd5b600080fd5b60008083601f840112610a3057610a2f610a0b565b5b8235905067ffffffffffffffff811115610a4d57610a4c610a10565b5b602083019150836001820283011115610a6957610a68610a15565b5b9250929050565b60008060208385031215610a8757610a86610976565b5b600083013567ffffffffffffffff811115610aa557610aa461097b565b5b610ab185828601610a1a565b92509250509250929050565b600081519050919050565b600082825260208201905092915050565b6000819050602082019050919050565b600081519050919050565b600082825260208201905092915050565b60005b83811015610b23578082015181840152602081019050610b08565b83811115610b32576000848401525b50505050565b6000601f19601f8301169050919050565b6000610b5482610ae9565b610b5e8185610af4565b9350610b6e818560208601610b05565b610b7781610b38565b840191505092915050565b6000610b8e8383610b49565b905092915050565b6000602082019050919050565b6000610bae82610abd565b610bb88185610ac8565b935083602082028501610bca85610ad9565b8060005b85811015610c065784840389528151610be78582610b82565b9450610bf283610b96565b925060208a01995050600181019050610bce565b50829750879550505050505092915050565b60006020820190508181036000830152610c328184610ba3565b905092915050565b6000819050919050565b610c4d81610c3a565b8114610c5857600080fd5b50565b600081359050610c6a81610c44565b92915050565b60008060408385031215610c8757610c86610976565b5b6000610c9585828601610c5b565b9250506020610ca6858286016109c9565b9150509250929050565b610cb9816109a0565b82525050565b6000602082019050610cd46000830184610cb0565b92915050565b60008060008060408587031215610cf457610cf3610976565b5b600085013567ffffffffffffffff811115610d1257610d1161097b565b5b610d1e87828801610a1a565b9450945050602085013567ffffffffffffffff811115610d4157610d4061097b565b5b610d4d87828801610a1a565b925092505092959194509250565b600082825260208201905092915050565b7f4f6e6c79206f776e6572206f722061646d696e21000000000000000000000000600082015250565b6000610da2601483610d5b565b9150610dad82610d6c565b602082019050919050565b60006020820190508181036000830152610dd181610d95565b9050919050565b600081905092915050565b82818337600083830152505050565b6000610dfe8385610dd8565b9350610e0b838584610de3565b82840190509392505050565b6000610e24828486610df2565b91508190509392505050565b7f4e487b7100000000000000000000000000000000000000000000000000000000600052603260045260246000fd5b7f4e487b7100000000000000000000000000000000000000000000000000000000600052602260045260246000fd5b60006002820490506001821680610ea657607f821691505b602082108103610eb957610eb8610e5f565b5b50919050565b7f4e487b7100000000000000000000000000000000000000000000000000000000600052601160045260246000fd5b6000610ef982610c3a565b91507fffffffffffffffffffffffffffffffffffffffffffffffffffffffffffffffff8203610f2b57610f2a610ebf565b5b60018201905091905056fea264697066735822122042f24225442ec971ef65cca6c5dd07bc4cd7751866f27ceb03f163da6da8f48e64736f6c634300080d0033",
  "devdoc": {
    "kind": "dev",
    "methods": {},
    "version": 1
  },
  "userdoc": {
    "kind": "user",
    "methods": {},
    "version": 1
  },
  "storageLayout": {
    "storage": [
      {
        "astId": 4,
        "contract": "contracts/Storage.sol:Storage",
        "label": "postsHashes",
        "offset": 0,
        "slot": "0",
        "type": "t_array(t_string_storage)dyn_storage"
      },
      {
        "astId": 8,
        "contract": "contracts/Storage.sol:Storage",
        "label": "indexes",
        "offset": 0,
        "slot": "1",
        "type": "t_mapping(t_string_memory_ptr,t_uint256)"
      },
      {
        "astId": 12,
        "contract": "contracts/Storage.sol:Storage",
        "label": "admins",
        "offset": 0,
        "slot": "2",
        "type": "t_mapping(t_address,t_bool)"
      },
      {
        "astId": 14,
        "contract": "contracts/Storage.sol:Storage",
        "label": "owner",
        "offset": 0,
        "slot": "3",
        "type": "t_address"
      },
      {
        "astId": 16,
        "contract": "contracts/Storage.sol:Storage",
        "label": "index",
        "offset": 0,
        "slot": "4",
        "type": "t_uint256"
      }
    ],
    "types": {
      "t_address": {
        "encoding": "inplace",
        "label": "address",
        "numberOfBytes": "20"
      },
      "t_array(t_string_storage)dyn_storage": {
        "base": "t_string_storage",
        "encoding": "dynamic_array",
        "label": "string[]",
        "numberOfBytes": "32"
      },
      "t_bool": {
        "encoding": "inplace",
        "label": "bool",
        "numberOfBytes": "1"
      },
      "t_mapping(t_address,t_bool)": {
        "encoding": "mapping",
        "key": "t_address",
        "label": "mapping(address => bool)",
        "numberOfBytes": "32",
        "value": "t_bool"
      },
      "t_mapping(t_string_memory_ptr,t_uint256)": {
        "encoding": "mapping",
        "key": "t_string_memory_ptr",
        "label": "mapping(string => uint256)",
        "numberOfBytes": "32",
        "value": "t_uint256"
      },
      "t_string_memory_ptr": {
        "encoding": "bytes",
        "label": "string",
        "numberOfBytes": "32"
      },
      "t_string_storage": {
        "encoding": "bytes",
        "label": "string",
        "numberOfBytes": "32"
      },
      "t_uint256": {
        "encoding": "inplace",
        "label": "uint256",
        "numberOfBytes": "32"
      }
    }
  }
}