{
  "address": "0xDC399E1c91D244608F986D870568f1F6855E3975",
  "abi": [
    {
      "inputs": [],
      "stateMutability": "nonpayable",
      "type": "constructor"
    },
    {
      "stateMutability": "payable",
      "type": "fallback"
    },
    {
      "inputs": [
        {
          "internalType": "string",
          "name": "_postHash",
          "type": "string"
        }
      ],
      "name": "addPostHash",
      "outputs": [],
      "stateMutability": "nonpayable",
      "type": "function"
    },
    {
      "inputs": [
        {
          "internalType": "address",
          "name": "",
          "type": "address"
        }
      ],
      "name": "admins",
      "outputs": [
        {
          "internalType": "bool",
          "name": "",
          "type": "bool"
        }
      ],
      "stateMutability": "view",
      "type": "function"
    },
    {
      "inputs": [
        {
          "internalType": "string",
          "name": "_postHash",
          "type": "string"
        }
      ],
      "name": "deletePostHash",
      "outputs": [],
      "stateMutability": "nonpayable",
      "type": "function"
    },
    {
      "inputs": [],
      "name": "getAllPostsHashes",
      "outputs": [
        {
          "internalType": "string[]",
          "name": "",
          "type": "string[]"
        }
      ],
      "stateMutability": "view",
      "type": "function"
    },
    {
      "inputs": [],
      "name": "index",
      "outputs": [
        {
          "internalType": "uint256",
          "name": "",
          "type": "uint256"
        }
      ],
      "stateMutability": "view",
      "type": "function"
    },
    {
      "inputs": [
        {
          "internalType": "string",
          "name": "",
          "type": "string"
        }
      ],
      "name": "indexes",
      "outputs": [
        {
          "internalType": "uint256",
          "name": "",
          "type": "uint256"
        }
      ],
      "stateMutability": "view",
      "type": "function"
    },
    {
      "inputs": [
        {
          "internalType": "address",
          "name": "_toMakeAdmin",
          "type": "address"
        }
      ],
      "name": "makeAdmin",
      "outputs": [],
      "stateMutability": "nonpayable",
      "type": "function"
    },
    {
      "inputs": [],
      "name": "owner",
      "outputs": [
        {
          "internalType": "address",
          "name": "",
          "type": "address"
        }
      ],
      "stateMutability": "view",
      "type": "function"
    },
    {
      "inputs": [
        {
          "internalType": "uint256",
          "name": "",
          "type": "uint256"
        }
      ],
      "name": "postsHashes",
      "outputs": [
        {
          "internalType": "string",
          "name": "",
          "type": "string"
        }
      ],
      "stateMutability": "view",
      "type": "function"
    },
    {
      "inputs": [
        {
          "internalType": "address",
          "name": "_toRemoveAdmin",
          "type": "address"
        }
      ],
      "name": "removeAdmin",
      "outputs": [],
      "stateMutability": "nonpayable",
      "type": "function"
    },
    {
      "inputs": [
        {
          "internalType": "string",
          "name": "_newPostHash",
          "type": "string"
        },
        {
          "internalType": "string",
          "name": "_oldPostHash",
          "type": "string"
        }
      ],
      "name": "setNewPostHashAfterEdit",
      "outputs": [],
      "stateMutability": "nonpayable",
      "type": "function"
    },
    {
      "inputs": [
        {
          "internalType": "uint256",
          "name": "_amount",
          "type": "uint256"
        },
        {
          "internalType": "address",
          "name": "_to",
          "type": "address"
        }
      ],
      "name": "withDraw",
      "outputs": [],
      "stateMutability": "nonpayable",
      "type": "function"
    },
    {
      "stateMutability": "payable",
      "type": "receive"
    }
  ],
  "transactionHash": "0xb3c7723aa9857df076ca94ad24053db43faba896da29ae0b52cc9b656388994a",
  "args": [],
  "numDeployments": 1,
  "solcInputHash": "4c1e16d889e98140ad9a641a1481b1f0",
  "bytecode": "0x6080604052600160045534801561001557600080fd5b5033600360006101000a81548173ffffffffffffffffffffffffffffffffffffffff021916908373ffffffffffffffffffffffffffffffffffffffff1602179055506001600260003373ffffffffffffffffffffffffffffffffffffffff1673ffffffffffffffffffffffffffffffffffffffff16815260200190815260200160002060006101000a81548160ff0219169083151502179055506117d7806100be6000396000f3fe6080604052600436106100ab5760003560e01c8063429b62e511610064578063429b62e5146101d6578063472905ca14610213578063845fb2111461023c5780638da5cb5b14610265578063b70a426c14610290578063db3bee1d146102b9576100b2565b80631785f53c146100b45780632427e59e146100dd5780632986c0e51461011a57806332ec8963146101455780633584596d1461016e5780633e03d22d146101ab576100b2565b366100b257005b005b3480156100c057600080fd5b506100db60048036038101906100d69190610d97565b6102e2565b005b3480156100e957600080fd5b5061010460048036038101906100ff9190610f0a565b6103cd565b6040516101119190610f6c565b60405180910390f35b34801561012657600080fd5b5061012f6103fb565b60405161013c9190610f6c565b60405180910390f35b34801561015157600080fd5b5061016c60048036038101906101679190610fe7565b610401565b005b34801561017a57600080fd5b5061019560048036038101906101909190611060565b6105dc565b6040516101a29190611115565b60405180910390f35b3480156101b757600080fd5b506101c0610688565b6040516101cd9190611243565b60405180910390f35b3480156101e257600080fd5b506101fd60048036038101906101f89190610d97565b610761565b60405161020a9190611280565b60405180910390f35b34801561021f57600080fd5b5061023a60048036038101906102359190610d97565b610781565b005b34801561024857600080fd5b50610263600480360381019061025e919061129b565b61084a565b005b34801561027157600080fd5b5061027a610979565b60405161028791906112ea565b60405180910390f35b34801561029c57600080fd5b506102b760048036038101906102b29190611305565b61099f565b005b3480156102c557600080fd5b506102e060048036038101906102db9190610fe7565b610add565b005b3373ffffffffffffffffffffffffffffffffffffffff16600360009054906101000a900473ffffffffffffffffffffffffffffffffffffffff1673ffffffffffffffffffffffffffffffffffffffff1614610372576040517f08c379a0000000000000000000000000000000000000000000000000000000008152600401610369906113d2565b60405180910390fd5b6000600260008373ffffffffffffffffffffffffffffffffffffffff1673ffffffffffffffffffffffffffffffffffffffff16815260200190815260200160002060006101000a81548160ff02191690831515021790555050565b6001818051602081018201805184825260208301602085012081835280955050505050506000915090505481565b60045481565b3373ffffffffffffffffffffffffffffffffffffffff16600360009054906101000a900473ffffffffffffffffffffffffffffffffffffffff1673ffffffffffffffffffffffffffffffffffffffff1614806104a65750600260003373ffffffffffffffffffffffffffffffffffffffff1673ffffffffffffffffffffffffffffffffffffffff16815260200190815260200160002060009054906101000a900460ff165b6104e5576040517f08c379a00000000000000000000000000000000000000000000000000000000081526004016104dc9061143e565b60405180910390fd5b6000600183836040516104f992919061148e565b90815260200160405180910390205490506000811161054d576040517f08c379a0000000000000000000000000000000000000000000000000000000008152600401610544906114f3565b60405180910390fd5b600160008054905061055f9190611542565b8111156105a1576040517f08c379a00000000000000000000000000000000000000000000000000000000081526004016105989061160a565b60405180910390fd5b60006001826105b0919061162a565b815481106105c1576105c061165e565b5b9060005260206000200160006105d79190610c42565b505050565b600081815481106105ec57600080fd5b906000526020600020016000915090508054610607906116bc565b80601f0160208091040260200160405190810160405280929190818152602001828054610633906116bc565b80156106805780601f1061065557610100808354040283529160200191610680565b820191906000526020600020905b81548152906001019060200180831161066357829003601f168201915b505050505081565b60606000805480602002602001604051908101604052809291908181526020016000905b828210156107585783829060005260206000200180546106cb906116bc565b80601f01602080910402602001604051908101604052809291908181526020018280546106f7906116bc565b80156107445780601f1061071957610100808354040283529160200191610744565b820191906000526020600020905b81548152906001019060200180831161072757829003601f168201915b5050505050815260200190600101906106ac565b50505050905090565b60026020528060005260406000206000915054906101000a900460ff1681565b3373ffffffffffffffffffffffffffffffffffffffff168173ffffffffffffffffffffffffffffffffffffffff16146107ef576040517f08c379a00000000000000000000000000000000000000000000000000000000081526004016107e690611739565b60405180910390fd5b6001600260008373ffffffffffffffffffffffffffffffffffffffff1673ffffffffffffffffffffffffffffffffffffffff16815260200190815260200160002060006101000a81548160ff02191690831515021790555050565b3373ffffffffffffffffffffffffffffffffffffffff16600360009054906101000a900473ffffffffffffffffffffffffffffffffffffffff1673ffffffffffffffffffffffffffffffffffffffff1614806108ef5750600260003373ffffffffffffffffffffffffffffffffffffffff1673ffffffffffffffffffffffffffffffffffffffff16815260200190815260200160002060009054906101000a900460ff165b61092e576040517f08c379a00000000000000000000000000000000000000000000000000000000081526004016109259061143e565b60405180910390fd5b8073ffffffffffffffffffffffffffffffffffffffff166108fc839081150290604051600060405180830381858888f19350505050158015610974573d6000803e3d6000fd5b505050565b600360009054906101000a900473ffffffffffffffffffffffffffffffffffffffff1681565b3373ffffffffffffffffffffffffffffffffffffffff16600360009054906101000a900473ffffffffffffffffffffffffffffffffffffffff1673ffffffffffffffffffffffffffffffffffffffff161480610a445750600260003373ffffffffffffffffffffffffffffffffffffffff1673ffffffffffffffffffffffffffffffffffffffff16815260200190815260200160002060009054906101000a900460ff165b610a83576040517f08c379a0000000000000000000000000000000000000000000000000000000008152600401610a7a9061143e565b60405180910390fd5b600060018383604051610a9792919061148e565b9081526020016040518091039020549050848460008381548110610abe57610abd61165e565b5b906000526020600020019190610ad5929190610c82565b505050505050565b3373ffffffffffffffffffffffffffffffffffffffff16600360009054906101000a900473ffffffffffffffffffffffffffffffffffffffff1673ffffffffffffffffffffffffffffffffffffffff161480610b825750600260003373ffffffffffffffffffffffffffffffffffffffff1673ffffffffffffffffffffffffffffffffffffffff16815260200190815260200160002060009054906101000a900460ff165b610bc1576040517f08c379a0000000000000000000000000000000000000000000000000000000008152600401610bb89061143e565b60405180910390fd5b6000828290918060018154018082558091505060019003906000526020600020016000909192909192909192909192509190610bfe929190610c82565b5060045460018383604051610c1492919061148e565b90815260200160405180910390208190555060046000815480929190610c3990611759565b91905055505050565b508054610c4e906116bc565b6000825580601f10610c605750610c7f565b601f016020900490600052602060002090810190610c7e9190610d08565b5b50565b828054610c8e906116bc565b90600052602060002090601f016020900481019282610cb05760008555610cf7565b82601f10610cc957803560ff1916838001178555610cf7565b82800160010185558215610cf7579182015b82811115610cf6578235825591602001919060010190610cdb565b5b509050610d049190610d08565b5090565b5b80821115610d21576000816000905550600101610d09565b5090565b6000604051905090565b600080fd5b600080fd5b600073ffffffffffffffffffffffffffffffffffffffff82169050919050565b6000610d6482610d39565b9050919050565b610d7481610d59565b8114610d7f57600080fd5b50565b600081359050610d9181610d6b565b92915050565b600060208284031215610dad57610dac610d2f565b5b6000610dbb84828501610d82565b91505092915050565b600080fd5b600080fd5b6000601f19601f8301169050919050565b7f4e487b7100000000000000000000000000000000000000000000000000000000600052604160045260246000fd5b610e1782610dce565b810181811067ffffffffffffffff82111715610e3657610e35610ddf565b5b80604052505050565b6000610e49610d25565b9050610e558282610e0e565b919050565b600067ffffffffffffffff821115610e7557610e74610ddf565b5b610e7e82610dce565b9050602081019050919050565b82818337600083830152505050565b6000610ead610ea884610e5a565b610e3f565b905082815260208101848484011115610ec957610ec8610dc9565b5b610ed4848285610e8b565b509392505050565b600082601f830112610ef157610ef0610dc4565b5b8135610f01848260208601610e9a565b91505092915050565b600060208284031215610f2057610f1f610d2f565b5b600082013567ffffffffffffffff811115610f3e57610f3d610d34565b5b610f4a84828501610edc565b91505092915050565b6000819050919050565b610f6681610f53565b82525050565b6000602082019050610f816000830184610f5d565b92915050565b600080fd5b600080fd5b60008083601f840112610fa757610fa6610dc4565b5b8235905067ffffffffffffffff811115610fc457610fc3610f87565b5b602083019150836001820283011115610fe057610fdf610f8c565b5b9250929050565b60008060208385031215610ffe57610ffd610d2f565b5b600083013567ffffffffffffffff81111561101c5761101b610d34565b5b61102885828601610f91565b92509250509250929050565b61103d81610f53565b811461104857600080fd5b50565b60008135905061105a81611034565b92915050565b60006020828403121561107657611075610d2f565b5b60006110848482850161104b565b91505092915050565b600081519050919050565b600082825260208201905092915050565b60005b838110156110c75780820151818401526020810190506110ac565b838111156110d6576000848401525b50505050565b60006110e78261108d565b6110f18185611098565b93506111018185602086016110a9565b61110a81610dce565b840191505092915050565b6000602082019050818103600083015261112f81846110dc565b905092915050565b600081519050919050565b600082825260208201905092915050565b6000819050602082019050919050565b600082825260208201905092915050565b600061117f8261108d565b6111898185611163565b93506111998185602086016110a9565b6111a281610dce565b840191505092915050565b60006111b98383611174565b905092915050565b6000602082019050919050565b60006111d982611137565b6111e38185611142565b9350836020820285016111f585611153565b8060005b85811015611231578484038952815161121285826111ad565b945061121d836111c1565b925060208a019950506001810190506111f9565b50829750879550505050505092915050565b6000602082019050818103600083015261125d81846111ce565b905092915050565b60008115159050919050565b61127a81611265565b82525050565b60006020820190506112956000830184611271565b92915050565b600080604083850312156112b2576112b1610d2f565b5b60006112c08582860161104b565b92505060206112d185828601610d82565b9150509250929050565b6112e481610d59565b82525050565b60006020820190506112ff60008301846112db565b92915050565b6000806000806040858703121561131f5761131e610d2f565b5b600085013567ffffffffffffffff81111561133d5761133c610d34565b5b61134987828801610f91565b9450945050602085013567ffffffffffffffff81111561136c5761136b610d34565b5b61137887828801610f91565b925092505092959194509250565b7f4f6e6c79206f776e657221000000000000000000000000000000000000000000600082015250565b60006113bc600b83611098565b91506113c782611386565b602082019050919050565b600060208201905081810360008301526113eb816113af565b9050919050565b7f4f6e6c79206f776e6572206f722061646d696e21000000000000000000000000600082015250565b6000611428601483611098565b9150611433826113f2565b602082019050919050565b600060208201905081810360008301526114578161141b565b9050919050565b600081905092915050565b6000611475838561145e565b9350611482838584610e8b565b82840190509392505050565b600061149b828486611469565b91508190509392505050565b7f556e646566696e656420696e6465782100000000000000000000000000000000600082015250565b60006114dd601083611098565b91506114e8826114a7565b602082019050919050565b6000602082019050818103600083015261150c816114d0565b9050919050565b7f4e487b7100000000000000000000000000000000000000000000000000000000600052601160045260246000fd5b600061154d82610f53565b915061155883610f53565b9250827fffffffffffffffffffffffffffffffffffffffffffffffffffffffffffffffff0382111561158d5761158c611513565b5b828201905092915050565b7f496e646578206f662066696e64656420706f7374206d6f7265207468616e206160008201527f6c6c20617272206c656e67746800000000000000000000000000000000000000602082015250565b60006115f4602d83611098565b91506115ff82611598565b604082019050919050565b60006020820190508181036000830152611623816115e7565b9050919050565b600061163582610f53565b915061164083610f53565b92508282101561165357611652611513565b5b828203905092915050565b7f4e487b7100000000000000000000000000000000000000000000000000000000600052603260045260246000fd5b7f4e487b7100000000000000000000000000000000000000000000000000000000600052602260045260246000fd5b600060028204905060018216806116d457607f821691505b6020821081036116e7576116e661168d565b5b50919050565b7f57687920796f7520696e64696361746520616e6f746865722061646472657373600082015250565b6000611723602083611098565b915061172e826116ed565b602082019050919050565b6000602082019050818103600083015261175281611716565b9050919050565b600061176482610f53565b91507fffffffffffffffffffffffffffffffffffffffffffffffffffffffffffffffff820361179657611795611513565b5b60018201905091905056fea26469706673582212201678da2377542c0e19cab06876edd38180aefe17d4f925d1692882ff74d5c6bb64736f6c634300080d0033",
  "devdoc": {
    "kind": "dev",
    "methods": {},
    "version": 1
  },
  "userdoc": {
    "kind": "user",
    "methods": {},
    "version": 1
  },
  "storageLayout": {
    "storage": [
      {
        "astId": 4,
        "contract": "contracts/Storage.sol:Storage",
        "label": "postsHashes",
        "offset": 0,
        "slot": "0",
        "type": "t_array(t_string_storage)dyn_storage"
      },
      {
        "astId": 8,
        "contract": "contracts/Storage.sol:Storage",
        "label": "indexes",
        "offset": 0,
        "slot": "1",
        "type": "t_mapping(t_string_memory_ptr,t_uint256)"
      },
      {
        "astId": 12,
        "contract": "contracts/Storage.sol:Storage",
        "label": "admins",
        "offset": 0,
        "slot": "2",
        "type": "t_mapping(t_address,t_bool)"
      },
      {
        "astId": 14,
        "contract": "contracts/Storage.sol:Storage",
        "label": "owner",
        "offset": 0,
        "slot": "3",
        "type": "t_address"
      },
      {
        "astId": 17,
        "contract": "contracts/Storage.sol:Storage",
        "label": "index",
        "offset": 0,
        "slot": "4",
        "type": "t_uint256"
      }
    ],
    "types": {
      "t_address": {
        "encoding": "inplace",
        "label": "address",
        "numberOfBytes": "20"
      },
      "t_array(t_string_storage)dyn_storage": {
        "base": "t_string_storage",
        "encoding": "dynamic_array",
        "label": "string[]",
        "numberOfBytes": "32"
      },
      "t_bool": {
        "encoding": "inplace",
        "label": "bool",
        "numberOfBytes": "1"
      },
      "t_mapping(t_address,t_bool)": {
        "encoding": "mapping",
        "key": "t_address",
        "label": "mapping(address => bool)",
        "numberOfBytes": "32",
        "value": "t_bool"
      },
      "t_mapping(t_string_memory_ptr,t_uint256)": {
        "encoding": "mapping",
        "key": "t_string_memory_ptr",
        "label": "mapping(string => uint256)",
        "numberOfBytes": "32",
        "value": "t_uint256"
      },
      "t_string_memory_ptr": {
        "encoding": "bytes",
        "label": "string",
        "numberOfBytes": "32"
      },
      "t_string_storage": {
        "encoding": "bytes",
        "label": "string",
        "numberOfBytes": "32"
      },
      "t_uint256": {
        "encoding": "inplace",
        "label": "uint256",
        "numberOfBytes": "32"
      }
    }
  }
}